:1000000000308A00262A0000831A0A28A500030E61
:10001000A6000F288312A500030EA600A6140A0846
:10002000AD008A018313A50E0408A7002008A800CC
:100030002108A9002208AA002308AB002408AC006C
:1000400083128C308400801E27288C1A40288B1E37
:100050002B280B194328270884002808A00029080A
:10006000A1002A08A2002B08A3002C08A4002D0838
:100070008A00260E83008312250EA6188316090017
:100080008C128A112B28C10803194E288711BB0A2C
:10009000851EBB013C083B020319871565308100B2
:1000A0002E14AF0A2F08053C031D5928AF01AE14CA
:1000B000B00A3008643C031D6028B0012E15B10A57
:1000C00031080A3C031D6628B101AE150B118A11D7
:1000D0002B2883160108C739083881000A3083129B
:1000E00081008B16C0308B043930831685000030B8
:1000F0008600C73087008312850186018701831639
:100100001F149F141F159F118312472A0130C2002C
:100110004208043C031C9D283D30420784008313A1
:10012000420803178D0083168C130C1483120C08DD
:10013000800064000313C20A8828D828C20142083C
:10014000043C031CC9283D30420784008313000887
:10015000C300420803178D000313430803178C00E4
:1001600083168C130C15831203130B08A0008B133A
:100170008316031755308D00AA308D008C148C180F
:10018000BF280C118312031320088B046400C20AD9
:100190009F28003403178D0183168C130C148312CF
:1001A0000C080313BD003D08AA3C031DD92886286E
:1001B000E328AA30BD000530BE000330BF0019306F
:1001C000C000C1019E20482A07080739B700B708B8
:1001D0000319FF282E1BEE285030B8002E17B80B3D
:1001E000FE28AE16B9030130B800B908031DFE2879
:1001F0002830B900AE122E130130B8000A29B90117
:100200002E1F04295030B8002E13B80B0A29AE1245
:100210000130B8003708BA00502AAE1E7A29AE1B4A
:1002200079293A08043C031D3129C10803193129F1
:10023000B601B508031D21293E08013C031CBE037D
:100240003029350B28294008333C0318C00A3029CF
:100250003508023C031D30293F08043C0318BF0A3F
:1002600076293A0B4E29C10803194E29B601B50863
:10027000031D3F293E08043C0318BE0A4D29350BD7
:100280004529C008031DC0034D293508023C031D44
:100290004D293F08013C031CBF0376293A08023C64
:1002A000031D5929B508031D5929B601C109B90112
:1002B00076293A08053C031D7629C10803197629D9
:1002C000B508031D68290130B5008514051176298C
:1002D000350B6F290230B5008510051576293508D4
:1002E000023C031D7629B50185100511AE170B30B0
:1002F000B2007B29AE13512A4508A101440203181C
:1003000084294408A0009029A0010830C600C40D2B
:10031000A00D450820020318A000A10DC60B8729D7
:1003200000344408F03E0318C729103EC829FC30A9
:100330008600C72960308600C729DA308600C729C1
:10034000F2308600C72966308600C729B63086009D
:10035000C729BE308600C729E0308600C729FE3095
:100360008600C729F6308600C729EE308600C729E7
:100370003E308600C7299C308600C7297A30860027
:10038000C7299E308600C729FE308600C729003461
:100390000A148A100A11820797299A299D29A029EF
:1003A000A329A629A929AC29AF29B229B529B82999
:1003B000BB29BE29C129C429C1080319FD29430845
:1003C000C4000A30C5007C212008B3004308C400E3
:1003D0000A30C5007C212108B4002E1EF6292E12F9
:1003E00087123308C40091210716FC292E16071224
:1003F0003408C40091218716002A8601071287124B
:100400000034A001A101420803104318A007A00C6A
:10041000A10CC318A007A00CA10C4319A007A00CA5
:10042000A10CC319A007A00CA10C431AA007A00C93
:10043000A10CC31AA007A00CA10C431BA007A00C81
:10044000A10CC31BA007A00CA10C652A03081F392F
:1004500083005F30A0002130840083138001840A70
:10046000A00B2E2A2030A000A0308400831380012E
:10047000840AA00B372AA001840183131F3083054F
:1004800083161F149F141F159F1183126928CA28F1
:100490002E1C8E2A2E106400AE1C8E2AAE10E4286C
:1004A0000D29350803195B2A013A03196A2A033A10
:1004B0000319702A742A3E08063CC200C300DC21DE
:1004C0003E08C2003F08C300012A3F08210240073E
:1004D000BC00742A4008C300DC214008BC00742A18
:1004E0003F08C300DC21742A2E1D8E2A2E11AE1D5A
:1004F0008E2AAE11B5080319862AB60A36083B3C87
:100500000318852AB50185100511872AB601B2089E
:1005100003198E2AB203320B8E2A9E20482A6300CA
:02400E00753FFC
:00000001FF
;PIC16F870
